{
  "_format": "hh-sol-artifact-1",
  "contractName": "EHRVault",
  "sourceName": "contracts/EHRVault.sol",
  "abi": [
    {
      "anonymous": false,
      "inputs": [
        {
          "indexed": true,
          "internalType": "uint256",
          "name": "id",
          "type": "uint256"
        }
      ],
      "name": "RecordAdded",
      "type": "event"
    },
    {
      "inputs": [
        {
          "components": [
            {
              "internalType": "uint256",
              "name": "id",
              "type": "uint256"
            },
            {
              "internalType": "address",
              "name": "recordAddress",
              "type": "address"
            },
            {
              "internalType": "string",
              "name": "metadata",
              "type": "string"
            },
            {
              "internalType": "string",
              "name": "name",
              "type": "string"
            },
            {
              "internalType": "string",
              "name": "ipfs",
              "type": "string"
            },
            {
              "internalType": "string",
              "name": "patientUid",
              "type": "string"
            }
          ],
          "internalType": "struct EHRVault.Record",
          "name": "_record",
          "type": "tuple"
        }
      ],
      "name": "addRecord",
      "outputs": [
        {
          "internalType": "uint256",
          "name": "",
          "type": "uint256"
        }
      ],
      "stateMutability": "nonpayable",
      "type": "function"
    },
    {
      "inputs": [
        {
          "internalType": "uint256",
          "name": "id",
          "type": "uint256"
        }
      ],
      "name": "getRecord",
      "outputs": [
        {
          "components": [
            {
              "internalType": "uint256",
              "name": "id",
              "type": "uint256"
            },
            {
              "internalType": "address",
              "name": "recordAddress",
              "type": "address"
            },
            {
              "internalType": "string",
              "name": "metadata",
              "type": "string"
            },
            {
              "internalType": "string",
              "name": "name",
              "type": "string"
            },
            {
              "internalType": "string",
              "name": "ipfs",
              "type": "string"
            },
            {
              "internalType": "string",
              "name": "patientUid",
              "type": "string"
            }
          ],
          "internalType": "struct EHRVault.Record",
          "name": "",
          "type": "tuple"
        }
      ],
      "stateMutability": "view",
      "type": "function"
    },
    {
      "inputs": [
        {
          "internalType": "string",
          "name": "patientUid",
          "type": "string"
        }
      ],
      "name": "getRecordsByPatientId",
      "outputs": [
        {
          "components": [
            {
              "internalType": "uint256",
              "name": "id",
              "type": "uint256"
            },
            {
              "internalType": "address",
              "name": "recordAddress",
              "type": "address"
            },
            {
              "internalType": "string",
              "name": "metadata",
              "type": "string"
            },
            {
              "internalType": "string",
              "name": "name",
              "type": "string"
            },
            {
              "internalType": "string",
              "name": "ipfs",
              "type": "string"
            },
            {
              "internalType": "string",
              "name": "patientUid",
              "type": "string"
            }
          ],
          "internalType": "struct EHRVault.Record[]",
          "name": "",
          "type": "tuple[]"
        }
      ],
      "stateMutability": "view",
      "type": "function"
    },
    {
      "inputs": [],
      "name": "totalRecords",
      "outputs": [
        {
          "internalType": "uint256",
          "name": "",
          "type": "uint256"
        }
      ],
      "stateMutability": "view",
      "type": "function"
    }
  ],
  "bytecode": "0x608060405234801561001057600080fd5b50611333806100206000396000f3fe608060405234801561001057600080fd5b506004361061004c5760003560e01c806303e9e60914610051578063125f897414610081578063571d1d8e1461009f578063b25fb451146100cf575b600080fd5b61006b60048036038101906100669190610cd1565b6100ff565b6040516100789190611025565b60405180910390f35b6100896103d4565b6040516100969190611047565b60405180910390f35b6100b960048036038101906100b49190610c90565b6103e5565b6040516100c69190611047565b60405180910390f35b6100e960048036038101906100e49190610c4f565b61056d565b6040516100f69190611003565b60405180910390f35b6101076109d2565b600160008381526020019081526020016000206040518060c0016040529081600082015481526020016001820160009054906101000a900473ffffffffffffffffffffffffffffffffffffffff1673ffffffffffffffffffffffffffffffffffffffff1673ffffffffffffffffffffffffffffffffffffffff168152602001600282018054610195906111b6565b80601f01602080910402602001604051908101604052809291908181526020018280546101c1906111b6565b801561020e5780601f106101e35761010080835404028352916020019161020e565b820191906000526020600020905b8154815290600101906020018083116101f157829003601f168201915b50505050508152602001600382018054610227906111b6565b80601f0160208091040260200160405190810160405280929190818152602001828054610253906111b6565b80156102a05780601f10610275576101008083540402835291602001916102a0565b820191906000526020600020905b81548152906001019060200180831161028357829003601f168201915b505050505081526020016004820180546102b9906111b6565b80601f01602080910402602001604051908101604052809291908181526020018280546102e5906111b6565b80156103325780601f1061030757610100808354040283529160200191610332565b820191906000526020600020905b81548152906001019060200180831161031557829003601f168201915b5050505050815260200160058201805461034b906111b6565b80601f0160208091040260200160405190810160405280929190818152602001828054610377906111b6565b80156103c45780601f10610399576101008083540402835291602001916103c4565b820191906000526020600020905b8154815290600101906020018083116103a757829003601f168201915b5050505050815250509050919050565b60006103e060006109ae565b905090565b60006103f160006109bc565b60006103fd60006109ae565b905060006040518060c00160405280838152602001856020015173ffffffffffffffffffffffffffffffffffffffff1681526020018560400151815260200185606001518152602001856080015181526020018560a00151815250905080600160008481526020019081526020016000206000820151816000015560208201518160010160006101000a81548173ffffffffffffffffffffffffffffffffffffffff021916908373ffffffffffffffffffffffffffffffffffffffff16021790555060408201518160020190805190602001906104db929190610a1e565b5060608201518160030190805190602001906104f8929190610a1e565b506080820151816004019080519060200190610515929190610a1e565b5060a0820151816005019080519060200190610532929190610a1e565b50905050817fd1959b6f21a13d63764a45c846f4a58f7e55291fb17591ff1d1b3fd4c2953e4560405160405180910390a28192505050919050565b6060600061057b60006109ae565b67ffffffffffffffff8111156105ba577f4e487b7100000000000000000000000000000000000000000000000000000000600052604160045260246000fd5b6040519080825280602002602001820160405280156105f357816020015b6105e06109d2565b8152602001906001900390816105d85790505b509050600080600190505b61060860006109ae565b81116109a3578460405160200161061f9190610fd5565b604051602081830303815290604052805190602001206001600083815260200190815260200160002060050160405160200161065b9190610fec565b60405160208183030381529060405280519060200120141561099057600160008281526020019081526020016000206040518060c0016040529081600082015481526020016001820160009054906101000a900473ffffffffffffffffffffffffffffffffffffffff1673ffffffffffffffffffffffffffffffffffffffff1673ffffffffffffffffffffffffffffffffffffffff168152602001600282018054610705906111b6565b80601f0160208091040260200160405190810160405280929190818152602001828054610731906111b6565b801561077e5780601f106107535761010080835404028352916020019161077e565b820191906000526020600020905b81548152906001019060200180831161076157829003601f168201915b50505050508152602001600382018054610797906111b6565b80601f01602080910402602001604051908101604052809291908181526020018280546107c3906111b6565b80156108105780601f106107e557610100808354040283529160200191610810565b820191906000526020600020905b8154815290600101906020018083116107f357829003601f168201915b50505050508152602001600482018054610829906111b6565b80601f0160208091040260200160405190810160405280929190818152602001828054610855906111b6565b80156108a25780601f10610877576101008083540402835291602001916108a2565b820191906000526020600020905b81548152906001019060200180831161088557829003601f168201915b505050505081526020016005820180546108bb906111b6565b80601f01602080910402602001604051908101604052809291908181526020018280546108e7906111b6565b80156109345780601f1061090957610100808354040283529160200191610934565b820191906000526020600020905b81548152906001019060200180831161091757829003601f168201915b505050505081525050838381518110610976577f4e487b7100000000000000000000000000000000000000000000000000000000600052603260045260246000fd5b6020026020010181905250818061098c906111e8565b9250505b808061099b906111e8565b9150506105fe565b508192505050919050565b600081600001549050919050565b6001816000016000828254019250508190555050565b6040518060c0016040528060008152602001600073ffffffffffffffffffffffffffffffffffffffff168152602001606081526020016060815260200160608152602001606081525090565b828054610a2a906111b6565b90600052602060002090601f016020900481019282610a4c5760008555610a93565b82601f10610a6557805160ff1916838001178555610a93565b82800160010185558215610a93579182015b82811115610a92578251825591602001919060010190610a77565b5b509050610aa09190610aa4565b5090565b5b80821115610abd576000816000905550600101610aa5565b5090565b6000610ad4610acf84611093565b611062565b905082815260208101848484011115610aec57600080fd5b610af7848285611174565b509392505050565b600081359050610b0e816112cf565b92915050565b600082601f830112610b2557600080fd5b8135610b35848260208601610ac1565b91505092915050565b600060c08284031215610b5057600080fd5b610b5a60c0611062565b90506000610b6a84828501610c3a565b6000830152506020610b7e84828501610aff565b602083015250604082013567ffffffffffffffff811115610b9e57600080fd5b610baa84828501610b14565b604083015250606082013567ffffffffffffffff811115610bca57600080fd5b610bd684828501610b14565b606083015250608082013567ffffffffffffffff811115610bf657600080fd5b610c0284828501610b14565b60808301525060a082013567ffffffffffffffff811115610c2257600080fd5b610c2e84828501610b14565b60a08301525092915050565b600081359050610c49816112e6565b92915050565b600060208284031215610c6157600080fd5b600082013567ffffffffffffffff811115610c7b57600080fd5b610c8784828501610b14565b91505092915050565b600060208284031215610ca257600080fd5b600082013567ffffffffffffffff811115610cbc57600080fd5b610cc884828501610b3e565b91505092915050565b600060208284031215610ce357600080fd5b6000610cf184828501610c3a565b91505092915050565b6000610d068383610e7b565b905092915050565b610d1781611138565b82525050565b6000610d28826110e8565b610d32818561110b565b935083602082028501610d44856110c3565b8060005b85811015610d805784840389528151610d618582610cfa565b9450610d6c836110fe565b925060208a01995050600181019050610d48565b50829750879550505050505092915050565b6000610d9d826110f3565b610da7818561111c565b9350610db7818560208601611183565b610dc0816112be565b840191505092915050565b6000610dd6826110f3565b610de0818561112d565b9350610df0818560208601611183565b80840191505092915050565b60008154610e09816111b6565b610e13818661112d565b94506001821660008114610e2e5760018114610e3f57610e72565b60ff19831686528186019350610e72565b610e48856110d3565b60005b83811015610e6a57815481890152600182019150602081019050610e4b565b838801955050505b50505092915050565b600060c083016000830151610e936000860182610fb7565b506020830151610ea66020860182610d0e565b5060408301518482036040860152610ebe8282610d92565b91505060608301518482036060860152610ed88282610d92565b91505060808301518482036080860152610ef28282610d92565b91505060a083015184820360a0860152610f0c8282610d92565b9150508091505092915050565b600060c083016000830151610f316000860182610fb7565b506020830151610f446020860182610d0e565b5060408301518482036040860152610f5c8282610d92565b91505060608301518482036060860152610f768282610d92565b91505060808301518482036080860152610f908282610d92565b91505060a083015184820360a0860152610faa8282610d92565b9150508091505092915050565b610fc08161116a565b82525050565b610fcf8161116a565b82525050565b6000610fe18284610dcb565b915081905092915050565b6000610ff88284610dfc565b915081905092915050565b6000602082019050818103600083015261101d8184610d1d565b905092915050565b6000602082019050818103600083015261103f8184610f19565b905092915050565b600060208201905061105c6000830184610fc6565b92915050565b6000604051905081810181811067ffffffffffffffff821117156110895761108861128f565b5b8060405250919050565b600067ffffffffffffffff8211156110ae576110ad61128f565b5b601f19601f8301169050602081019050919050565b6000819050602082019050919050565b60008190508160005260206000209050919050565b600081519050919050565b600081519050919050565b6000602082019050919050565b600082825260208201905092915050565b600082825260208201905092915050565b600081905092915050565b60006111438261114a565b9050919050565b600073ffffffffffffffffffffffffffffffffffffffff82169050919050565b6000819050919050565b82818337600083830152505050565b60005b838110156111a1578082015181840152602081019050611186565b838111156111b0576000848401525b50505050565b600060028204905060018216806111ce57607f821691505b602082108114156111e2576111e1611260565b5b50919050565b60006111f38261116a565b91507fffffffffffffffffffffffffffffffffffffffffffffffffffffffffffffffff82141561122657611225611231565b5b600182019050919050565b7f4e487b7100000000000000000000000000000000000000000000000000000000600052601160045260246000fd5b7f4e487b7100000000000000000000000000000000000000000000000000000000600052602260045260246000fd5b7f4e487b7100000000000000000000000000000000000000000000000000000000600052604160045260246000fd5b6000601f19601f8301169050919050565b6112d881611138565b81146112e357600080fd5b50565b6112ef8161116a565b81146112fa57600080fd5b5056fea2646970667358221220fd9b9cb7289d8f285111014b75be6184000f88c14322b122b2729370d0c47d3964736f6c63430008000033",
  "linkReferences": {},
  "deployedLinkReferences": {}
}